:10000000BAEF02F00000000000EF00F00000000076
:0A0010000000000000000000F3D71C
:10001C000F0E0C6E470E0D6E0D2EFED70C2EFCD750
:06002C00000000001200BC
:06003200000000001200B6
:0A003800210E0D6E0D2EFED71200F2
:100042000001F7BF02D0819601D08186F7BD02D0B0
:10005200819401D08184F7BB02D0819201D0818248
:10006200F7B902D0819001D0818021B002D081887D
:1000720001D08198818ADCDF819AF7B702D081961C
:1000820001D08186F7B502D0819401D08184F7B383
:1000920002D0819201D08182F7B102D0819001D049
:1000A200818021B002D0818801D08198818AC0DF0D
:0E00B200819A21A002D0B1DF01D0BDDF120083
:1000C000F1C002F0F2C003F0F4C000F0F5C001F09E
:1000D000010E0001F45F000EF55B005001100FE00F
:1000E00002C0E9FF03C0EAFFEE50F31905E102C0C8
:1000F00000F003C001F005D0024A032AE5D7006AE8
:04010000016A12007E
:10010400F1C004F0F2C005F00001F551F61124E04D
:10011400010EF55F000EF65B04C002F005C003F0AB
:10012400044A052AF3C000F0F4C001F0F34BF42BA9
:1001340000C0E9FF01C0EAFF02C0E1FF03C0E2FF23
:10014400EECFE6FF02C0E9FF03C0EAFFEECF00F006
:10015400005201E101D0D8D7F5C000F0F6C001F09B
:10016400010EF55F000EF65B0050011008E004C0BC
:10017400E1FF05C0E2FFE66A044A052AEDD7F1C0B3
:0801840000F0F2C001F01200CE
:0A018C00000E9EBA010E006E120074
:10019600AECF01F0ABA202D0AB98AB8801C000F0A5
:0201A600120045
:0C01A8002190F1C0F7F049DF2180120027
:1001B400E9C0E9FFEAC0EAFFEE5211E0E9C0E9FF55
:1001C400EAC0EAFFEBC0D9FFECC0DAFFEE50DE185C
:1001D40006E10001E94BEA2BEB4BEC2BE9D7E9C034
:1001E400E9FFEAC0EAFFEBC0D9FFECC0DAFFDE505A
:0C01F400EE5C006E016A000E015A120061
:10020000939A93989390939293949396819A8198CA
:10021000819681948192819001DF00DFFFDE8182EF
:100220008180818A06DF819AF9DE818A02DF819AE4
:10023000F5DE818AFEDE819AF1DE8190818AF9DE27
:10024000819AECDE818AF5DE819A81928186818AAB
:10025000F0DE819AE3DE81968180818AEADE819AEE
:100260008190818AE6DE819AD9DE818AE2DE819AF6
:100270008180818ADEDE819AD1DE8190818AD9DE19
:10028000819A8186818481828180818AD2DE819A6D
:06029000C5DE2180120012
:100296000001EF6BF06BED5342E0ED51FF0AD8A47D
:1002A600ED0771DF0050000A01E1FBD771DF00C0E6
:1002B600EEF00001EF51E925E16E000EEA21E26E53
:1002C60000C0E6FFEF2BF051EB25E96E000EEC21A6
:1002D600EA6EEE50EE1902E1F02B09D0F06BEBC09E
:1002E600E9FFECC0EAFFEE50EE19D8B4F02BF0515E
:1002F600EB25E96E000EEC21EA6EEE50000A0EE1E7
:10030600F051EF5D006E016A000E015A0050E925BA
:10031600E16E0150EA21E26EE66A06D0BCD7E9C07A
:0A032600E1FFEAC0E2FFE66A120000
:10033000FF0E0001816FFF0E826FFF0E836FFF0EB5
:10034000846F960E7C6E010E7D6E000E7E6E000E2A
:100350007F6E8C0E896F010E8A6F000E8B6F000E00
:100360008C6FFF0E856FFF0E866F000E876F000E7D
:10037000886FAC8A900EAB6E948E949C9EAA03D02C
:08038000AECF00F0FBD7120024
:100388000900F5CFE6FF0006FBE10106F9E11200DE
:10039800E9C0F1F0EAC0F2F0220E0001F36F030E9B
:1003A800F46F000EF56F88DE00C0EFF001C0F0F0CA
:1003B800010E0024F16F000E0120F26F220EF36F80
:1003C800140EF46F000EF56F77DE00C0E9F001C07F
:1003D800EAF0EBC0F1F0ECC0F2F0010EEF25F36F9C
:1003E800000EF021F46FEF51005CF56FF0510158E9
:1003F800F66F010EF55F000EF65B80DE010EE92553
:10040800F16F000EEA21F26F220EF36F030EF46F04
:10041800000EF56F51DE00C0EFF001C0F0F0010EE4
:100428000024F16F000E0120F26F220EF36F140EFC
:10043800F46F000EF56F40DE00C0E9F001C0EAF08D
:10044800EDC0F1F0EEC0F2F0010EEF25F36F000EF3
:10045800F021F46FEF51005CF56FF0510158F66F21
:10046800010EF55F000EF65B49DEE9C000F0EAC058
:0404780001F012007D
:10047C0010D0800E0001E96F1AD0C00EE96F17D0B2
:10048C00940EE96F14D0D40EE96F11D0800EE96F81
:10049C000ED00001E951010AECE0E951020AEDE04D
:1004AC00E951030AEDE0E951040AEDE0EFD7EA0562
:1004BC00006EE951002600C0E9F000C0F7F0BBDD8A
:1004CC002190ED6BED51EB25E96E000EEC21EA6EFF
:1004DC00EE520BE0ED51EB25E96E000EEC21EA6ECD
:0E04EC00EECFF1F05BDEED2BEDD7218012009C
:1004FA00E9C004F0EAC005F004C002F005C003F048
:10050A00044A052AEBC000F0ECC001F00001EB4BF5
:10051A00EC2B00C0E9FF01C0EAFF02C0E1FF03C003
:10052A00E2FFEECFE6FF02C0E9FF03C0EAFFEE52A8
:0E053A0001E0E2D7E9C000F0EAC001F01200D3
:100548000001EB6BEB51E925E96E000EEA21EA6E3A
:10055800EE520BE0EB51E925E96E000EEA21EA6E56
:0C056800EECFF1F01DDEEB2BEDD7120002
:10057400156A4F0E166E4B0E176E186A490E196ED9
:10058400500E1A6E1B6A530E1C6E530E1D6E490ECE
:100594001E6E440E1F6E206A010E0001806F330E22
:1005A400AF6EAC84C3DE2ADE020E0B6E040E0C6E3C
:1005B400BA0E0D6E0D2EFED70C2EFCD70B2EFAD7CD
:1005C4000000E2DD0050010AD8A4B4D00001220EDC
:1005D400E96F000EEA6F160EEB6F000EEC6F550E0E
:1005E400ED6F57DE016A026A000E021802E1015043
:1005F400220AD8B49FD0220EE76F000EE86FE7C03E
:10060400E9F0E8C0EAF0BF0EEB6F000EEC6FAB0E42
:10061400ED6F000EEE6FBEDE00C0E7F001C0E8F043
:10062400010E0024E96F000E0120EA6FDD0EEB6F6E
:10063400000EEC6FC90EED6F000EEE6FABDE00C066
:10064400E7F001C0E8F0010E0024E96F000E01207C
:10065400EA6FA10EEB6F000EEC6F8D0EED6F000EC6
:10066400EE6F98DE80534AE0BF0EE96F000EEA6F2A
:100674001C0EEB6F000EEC6F9BDD000E011802E107
:10068400000E001812E1DD0E0001E96F000EEA6FA2
:10069400190EEB6F000EEC6F8BDD000E011802E1FA
:1006A400000E001802E10001806B0001010EF76FDB
:1006B400C6DC0C0EF76FC3DC010EE96F010EEA6FA6
:1006C400BF0EEB6F000EEC6FD7DE3A0EF16F6ADDF2
:1006D400AB0EE96F000EEA6F35DF020EE96F010E13
:1006E400EA6FDD0EEB6F000EEC6FC6DE3A0EF16FB3
:1006F40059DDC90EE96F000EEA6F24DF030EE96FBE
:10070400010EEA6FA10EEB6F000EEC6FB5DE3A0E30
:10071400F16F48DD8D0EE96F000EEA6F13DF220ED4
:10072400E96F000EEA6F150EEB6F000EEC6FE3DE5F
:0807340030DD2FDD46D7FFD7B1
:020000040030CA
:0D000100220F0EFF0181FF0FC00FE00F4026
:00000001FF
